:020000040800F2
:10000000E80F0020ED010008D5480008653C000815
:10001000D148000859040008F55700080000000006
:100020000000000000000000000000006B5000080D
:10003000C304000800000000F94D00086D500008DE
:10004000070200080702000807020008070200086C
:10005000070200080702000807020008070200085C
:100060000702000807020008070200085B040008F6
:1000700067040008070200080702000807020008DA
:10008000070200080702000807020008070200082C
:10009000070200080702000807020008070200081C
:1000A00007020008FD500008F15000080702000890
:1000B00007020008070200080702000807020008FC
:1000C00007020008070200080702000807020008EC
:1000D0000702000807020008E957000807020008A5
:1000E00007020008070200080702000807020008CC
:1000F00007020008070200080702000807020008BC
:1001000007020008070200080702000807020008AB
:100110006752000873520008095100081551000881
:10012000730400080702000807020008070200081D
:10013000070200080702000807020008070200087B
:10014000070200080702000807020008070200086B
:10015000070200080702000807020008070200085B
:10016000070200080702000807020008070200084B
:10017000070200080702000807020008070200083B
:10018000070200080702000807020008070200082B
:10019000070200080000000007020008070200082C
:1001A000070200080702000807020008070200080B
:1001B00007020008070200080702000807020008FB
:1001C00007020008070200080702000807020008EB
:1001D0000702000807020008DFF80CD000F07AF8E8
:1001E00000480047F9580008E80F002006488047FB
:1001F00006480047FEE7FEE7FEE7FEE7FEE7FEE70C
:10020000FEE7FEE7FEE7FEE7DF500008D901000841
:100210002DE9F05F0546002092469B46884606463B
:10022000814640241BE0284641464746224600F0CE
:1002300041F853465A46C01A914110D31146184608
:10024000224600F028F82D1A67EB01084F46224697
:100250000120002100F01FF817EB00094E41201E7D
:10026000A4F10104DFDC484631462A464346BDE896
:10027000F09FD2B201E000F8012B491EFBD270477B
:100280000022F6E710B513460A4604461946FFF762
:10029000F0FF204610BD202A04DB203A00FA02F1CC
:1002A000002070479140C2F1200320FA03F3194364
:1002B00090407047202A04DB203A21FA02F0002106
:1002C000704721FA02F3D040C2F120029140084366
:1002D000194670471CB50948009009480190054629
:1002E000009C06E0E06840F0010394E807009847AE
:1002F0001034AC42F6D3FFF773FF0000C85C00086F
:10030000E85C00080146806AC36DC26D13F0500FAF
:1003100007D0D20648BF00F058BB406D426B08467C
:10032000104742F40071C16501680B68CA681B0779
:1003300003D4910707D500F01EBB12F4406FFAD129
:10034000C9688904F7D4C16D21F48071C165C16D9C
:10035000C90448BF00F00FBBC16D41F00101C16588
:1003600000F009BB806AC16D41F04001C165016EBA
:1003700041F00401016600F028BB806A00F0FCBA7D
:1003800070B582B004460020019021688A68D207C7
:1003900045D14FF6C076C7F6FF76886806F17F0232
:1003A000104209D0E06D40F01000E065206E40F092
:1003B00001002066012032E088684FF4C1623040BD
:1003C00040F00100886040F20010C5F20000814258
:1003D00008BF4FF40272B1F1A04F08BF4FF4027290
:1003E000105800021DD400F0DDFF21680A68D20712
:1003F00014D105468868C00704D18868304040F0B1
:100400000100886000F0CEFF401B2168032802D362
:100410000868C007C6D00868C007EBD0002002B04B
:1004200070BD40F20000C2F20000006842F6635165
:100430008009C0F23E51A0FB0101880900EB400099
:100440000C2101EB800000BF019001980028CAD068
:1004500001980138F8E70000FEE740F29850C2F238
:10046000000000F091BD40F2F850C2F2000000F030
:100470008BBD40F25860C2F2000000F085BD70B53F
:10048000D0E913C4D0F854E0CCF80440BEF1000F1A
:100490001CBFD0E9164CC4F804C0D0E910CE0468E3
:1004A00086680EF01F00012505FA00F0CCF8040064
:1004B00008466360102E04BF10460A46A060E26042
:1004C00070BD7047EFF3108072B600BFFEE790F882
:1004D0005820012A01D1022187E070B582B00022A4
:1004E00001920092026840F2080EC5F2000EB2F1CD
:1004F000A04F0EF1F80508D040F20043C5F200030A
:100500009A4231D10EF59F6300E02B469B689468B8
:1005100023435B0728D44FF4E063D1F800C0AA421C
:1005200008BF4FF44073B2F1A04F08BF4FF44073BF
:100530005EF80340BCF1000F24F460441AD04D680B
:1005400090F8386042F4807245EA46352C4340F218
:100550000015C5F20005AA424EF8034019D1DEF895
:100560000020DEF800411BE0C16D41F02001C165B3
:10057000012134E042F4807140F20012C5F2000221
:1005800091424EF8034018D1DEF80010DEF8002149
:100590001AE0DEF80044DEF80055DEF800262C43B1
:1005A0002243D2071AD15EF8032040F61F748968EF
:1005B000A243114341EA0C010EE0DEF80024DEF80C
:1005C0000065DEF8001632431143C90706D15EF814
:1005D000031040F61F7291434EF8031000210022D1
:1005E00080F8582002B0BDE870400846704700000F
:1005F000F0B581B00022009290F85820012A01D174
:10060000022196E10123076880F85830BB685B0738
:1006100034D4D1E900351F26C5F3012407EB840447
:10062000226B05F01F05AE40C3F38463B243AB40B9
:100630001A432263BA68BB6802F0040203F008039D
:10064000D21840F0BC800A6807F114030426C2F3F4
:100650004064D1F808E006EAD25C53F82440C2F3C3
:1006600004550722AA40BEF1004F24EA02040BD130
:1006700043F80C401A6842F000430DE0C16D41F0B0
:100680002001C165012151E10EFA05F2224343F830
:100690000C201A6822F000437B61D1E90435FC6824
:1006A000042B5FD13A6E3A6E0B68C2F3846293FA00
:1006B000A3F6C3F3846C6FF3DF43B6FA86F5002B21
:1006C0002C464FF6FF7E08BF6446A242C0F2070EDA
:1006D0000CD13A6E22F000423A660A6802EA0E0332
:1006E000C2F3846C92FAA2F2B2FA82F57A6E7A6E52
:1006F000002BC2F384622C4608BF6446A2420CD190
:100700007A6E22F000427A660A6802EA0E03C2F3A9
:10071000846C92FAA2F2B2FA82F5BA6EBA6E002B2B
:10072000C2F384622C4608BF6446A2420CD1BA6E62
:1007300022F00042BA660A6802EA0E03C2F3846C31
:1007400092FAA2F2B2FA82F5FA6EFA6E002BC2F3B6
:10075000846208BF6546AA4231D1FA6E22F0004297
:10076000FA662CE0062202EA940205FA02FC0E6800
:1007700007F1600555F823404FF20002C0F2FF3246
:1007800006F0F846224046EA0C06324342F00042A8
:1007900045F823200A698B6955F8226026F0807697
:1007A000334345F822300A690B7F55F82260012B4C
:1007B00026F0007608BF06F1007645F82260BA6898
:1007C0000D68D2074FD1CA68D7F8B0602B466FF3D7
:1007D000DF4326EA030C4FF6FF7602F01804C0F25E
:1007E0000706E64000242E40C4F27F0446EA0C06C9
:1007F000A242C7F8B06036D18BB195FAA5F2B2FA31
:1008000082F2013202F01E03092B02F01F030FD8FF
:1008100001229A4003EB430342EA035314E001220E
:1008200002EB956202F01E030A2B02F01F03EFD3C6
:10083000012200269A4003EB4303CFF6206606EB25
:1008400003531A4342F00073C3F3406607EB860676
:100850008A687569C3F3045307249C40A5439A40F2
:100860002A4372610D680021C8F208010D425CD074
:1008700040F2001CC5F2000C4FF4C161674508BF8F
:100880004FF40271B7F1A04F08BF4FF4027151F855
:100890000C400022CCF22132954204F0E07E04D0DC
:1008A0001022C9F2C00295422CD122023DD440F25E
:1008B0000062C5F20002974202D0B7F1A04F34D1D6
:1008C0005CF8012022F0E07242EA0E0242F40002DB
:1008D0004CF8012040F20001C2F20001096842F622
:1008E00063528909C0F23E52A1FB0212910901EB49
:1008F00041010C2202EB810100910099A9B10099FC
:100900000139F9E70022CCF25272954214D100224B
:10091000B2EB1E6F10D15CF8012022F0E07242EAC7
:100920000E0242F080724CF801200021002280F873
:100930005820084601B0F0BD0021CCF684318D422C
:100940004FF0000108BF14F48002EFD1B7F1A04FBF
:1009500006D06745EAD0674502D00CF5C06101E0DA
:100960000CF500718A6822F0E07242EA0E0242F44D
:1009700080028A60D9E77047704740F2C040C2F2F7
:100980000000C06D01280DD180B540F2C04040F29A
:100990001041C2F20000C2F20001042200F0F3F99B
:1009A000BDE8804040F22C50C2F20000C06D01282A
:1009B00018BF704740F22C5040F25041C2F2000084
:1009C000C2F20001042200F0DEB97047B0B582B077
:1009D00004460020002C019041D0E06D30B9204643
:1009E00000F00BF90020206684F858002168886820
:1009F00080004FF6C070C5F6FF7002D58A680240CD
:100A00008A608A68D2001DD48A6800F18050104044
:100A100040F08050886040F20000C2F200000068A0
:100A200042F663528009C0F23E52A0FB02029009D6
:100A3000022202EB400000BF0190019810B1019822
:100A40000138F9E78868C0000BD4E06D40F0100071
:100A5000E065206E40F001002066012002E00120E8
:100A6000C9E000208A68E36D02F0040203F010037D
:100A7000D218E26D17D122F481720232E2658A68DF
:100A8000D20736D140F2001341F48072C5F2000360
:100A900040F2080C9A42C5F2000C08D1DCF8003094
:100AA000DCF800210BE042F010010120A2E0DCF8AC
:100AB00000E4DCF80025DCF8003642EA0E021A43B6
:100AC000D20716D10CF1F8024FF4E063D4F804E039
:100AD000914208BF4FF44073B1F1A04F08BF4FF4EB
:100AE00040735CF8032022F47C1242EA0E024CF8B8
:100AF000032094F81DE0E36BD4E902C243EA4E33CD
:100B00001A4394F8243042EA0C02012B42EA0342D1
:100B100007D1D4F828C00023CFF6FE7303EB4C4373
:100B20001A43E36A33B1D4F830C003F4787343EA6C
:100B30000C031A43D1F80CC044F20703CFF6F0734C
:100B400003EA0C031A43CA600A69636B22F040622D
:100B50001A430A618A6812073ED494F83820237F2A
:100B6000520042EA833CCB6844F2020223EA0202CA
:100B700042EA0C02CA6022690B6952B143F4803325
:100B80000B61D1F8C0C043F6FF732CEA03031A438C
:100B900007E023F480320A61D1F8C02043F6FF73E6
:100BA0009A43C1F8C02094F840300A69012B10D153
:100BB00040F2FD7322EA030CD4E91132D4E913E5C3
:100BC00043EA0C031A4342EA0E022A4342F00102AE
:100BD00001E022F001020A6162690B6B012A23F035
:100BE0000F0202D1236A013B1A430A63E16D01221D
:100BF00062F30101E16502B0B0BD2DE9F0419CB0A6
:100C0000044617A81421FFF73BFB02A85421FFF765
:100C100037FB206840F20041C5F20001884246D00F
:100C2000B0F1A04F40F0AC804FF4004002904FF084
:100C30000050139002A801F04DF908B1FFF742FCF3
:100C400041F24C00C4F202000168002641F4005158
:100C50000160016801F4005101910199016841F0BE
:100C600001010160006817A900F0010001900198DE
:100C70000F201790032018904FF09040199600F025
:100C8000B3FA40F298550820C2F20005C4F20200FF
:100C900080224FF480734FF4806705214FF0200CC1
:100CA00085E84300C5E90362C5E905375BE04FF419
:100CB000803002904FF00040149002A801F00AF931
:100CC00008B1FFF7FFFB41F24C00C4F202000168DB
:100CD00040F2004541F4804101600168C4F600051E
:100CE00001F4804101910199016817AE41F00201C0
:100CF000016001684FF0030801F0020101910199C0
:100D00000168002741F0100101600068314600F0E1
:100D1000100001900198022017902846CDF86080BD
:100D2000199700F061FA4FF40A50CDE9170805F55C
:100D300040603146199700F057FA0820C4F20200CB
:100D400040F2F8551430C2F2000580224FF480734F
:100D50004FF480664FF0200C252185E88300C5E91B
:100D60000372C5E905364FF4805028622846C5F85D
:100D70001CC000F056F908B1FFF7A4FB6565AC6232
:100D80001CB0BDE8F0812DE9F041044640F20017A7
:100D90000068C5F200074FF4C163B84208BF4FF4C2
:100DA0000273B0F1A04F08BF4FF40273DB5986689D
:100DB0009046720704D40E4694F85810012902D1C7
:100DC0000220BDE8F08107F5A06203F01F050121B4
:100DD000904284F8581018BF002D16D12046FFF716
:100DE000CFFAB0B92168E06D40F60172904300F58A
:100DF0008070B942E06512D040F20050C5F20000A8
:100E0000814212D107F540700BE0052DE6D0092D87
:100E1000E4D0002084F858000120BDE8F0814FF0B4
:100E2000A040884218BF002D03D1E06D20F480104F
:100E3000E065E06D40F20533C0044FF0000044BFB0
:100E4000206E20F006002066606D40F27B37C0F611
:100E50000003C0F6000740F265350022C0F6000529
:100E6000C0E90B371C2345630B6084F858204A689F
:100E7000434642F010024A60CA6842F00102CA606A
:100E80004031324600F057F921684FF6C0738A6846
:100E9000C7F6FF731A4004328A60BDE8F08101464C
:100EA00090F82500022827D180B50868D1E910CE36
:100EB0008A6C036823F00E030360136823F48073C5
:100EC0001360026822F0010202600EF01F0001228E
:100ED00002FA00F0CCF80400D1E913205060486D0C
:100EE00030B1026822F480720260D1E916024260D9
:100EF0000020BDE8804002E00420C86301200122F8
:100F000081F82520002281F82420704790F82510D0
:100F100002292FD180B50168D0E910CE826C0B6810
:100F200023F00E030B600B6823F001030B601168C4
:100F300021F4807111600EF01F02012101FA02F20A
:100F4000CCF80420D0E913325A60426D32B11368F4
:100F500023F480731360D0E91623536080F82510C2
:100F6000826B002180F824100AB190470021BDE86F
:100F7000804007E00421C1630121002280F8251090
:100F800080F8242008467047B0B5D0E910C3026845
:100F9000DCF8001003F01F030424D2F800E09C40AA
:100FA0000C4218BF1EF004051AD102249C400C42CA
:100FB00018BF1EF002051FD1D94009071BD51EF02E
:100FC000080118D0116821F00E011160012101FA09
:100FD00003F2CCF80420C16380F82510416B18E0BF
:100FE0001168890603D4116821F004011160CCF85E
:100FF0000440016B91B9B0BD1168890606D411682F
:1010000021F00A011160012180F82510CCF804407C
:10101000C16A0022002980F82420ECD0BDE8B0404D
:10102000084700284FF0010100F083802DE9F047C8
:1010300040F2000CC4F2020C03684FF6F8320CF5D3
:10104000816ECBF6FD72734538BF02F580624CF6B7
:10105000CD441A44CCF6CC44A2FB042903F0FC0294
:10106000A2F10802A2FB04280CF580646FF00305CE
:10107000D0E902A607693CBF0024C4F2020405EAD5
:101080009905C0E91045022480F825401C6847F600
:10109000F07224EA0202324346693A4387693243D6
:1010A000C6693A43076A32433A4342EA0A021A607F
:1010B0000CF50262734538BF0CF50062AB180CF5F5
:1010C0000862C264C8F3041201FA02F540F6840112
:1010D000BAF5804FC4F202018364056504D1002291
:1010E00042601A600D6016E04268D4B2013A032AE9
:1010F0004FF000021C600D600DD8631E01EB8307EA
:1011000047F87C2F03F01F0201239340C1F8C03041
:10111000BC313A4601E000210023C0E9152100213D
:101120000122C365C16380F8252080F82410BDE842
:10113000F0470846704710B5044690F8240001288F
:1011400020D0012084F8240094F82500012816D12D
:10115000022084F825000020E063D4F800C0DCF809
:10116000000020F00100CCF800002046FFF787F9CE
:101170002068226B01683AB141F00E010AE00020BC
:1011800084F82400022010BD21F0040101600168F0
:1011900041F00A010160A16C0A68D20303D50A6814
:1011A00042F480720A60616D19B10A6842F480727B
:1011B0000A60016841F001010160002010BD0000DB
:1011C000B0B5044600F0EEF8054640F20400C2F265
:1011D00000000068611C18BF044400BF00F0E2F882
:1011E000401BA042FAD3B0BD2DE9F04F83B00E688A
:1011F000002E00F0CE8000F1200241F2004C00925F
:1012000000F13847C4F6000C06224FEAB7256045C6
:1012100008BF0522052D38BF4FEAB7220025002759
:101220004FF00008019200BF012202FA08FE16EA00
:101230000E0900F0A380D1F804C003220CF0030BC8
:10124000ABF1010602FA07F4012E6FEA040A11D885
:101250008468CE6804EA0A04BE403443846044686B
:1012600024EA0E06CCF3001404FA08F42643466080
:1012700006E000BFBBF1030F02D14FF0030B21E0EA
:10128000C6688C6806EA0A06BC402643BBF1020F1A
:10129000C66017D16FF00302009B02EA580605F002
:1012A0001C020F2453F806C004FA02FE0C692CEA53
:1012B0000E0C04FA02F242EA0C029A51D1F804C070
:1012C0000CF0030B02680BFA07F302EA0A021A4356
:1012D0001CF4403F026051D041F26003C4F20203AB
:1012E0001A6840F2004E42F001021A601A68C4F215
:1012F000010E02F001020292029A28F003024FF658
:10130000084C7244CFF6FF7C52F80C3005F00C0606
:101310000F24B440A343019C04FA06F6334342F879
:101320000C30DEF808204B6842EA090640F20C4C0B
:10133000DC0258BF22EA0906CEF80860C4F2010CAC
:10134000DCF800209C0242EA090658BF22EA09069E
:10135000CCF80060DEF804209C0342EA090658BF7E
:1013600022EA0906CEF80460DEF80020DB0342EA38
:10137000090658BF22EA0906CEF800600E6808F197
:10138000010836FA08F207F1020705F104057FF4B7
:101390004BAF03B0BDE8F08F1823002A08BF282305
:1013A000C150704740F6E030C2F20000006870475C
:1013B00090F8DC20012A4FF0020221D0012380F8AE
:1013C000DC3080F8DD2002684B1CD2F8CCC309D099
:1013D0004CF00203C2F8CC33D2F8CC3323F00C0328
:1013E000194301E02CF00201C2F8CC13D2F8CC135F
:1013F00041F00101C2F8CC130121002280F8DD1078
:101400001046704790F8DD30022B01D1022343E0F3
:1014100090F8DC30012B4FF002033DD070B580F81E
:10142000DD30D2E900C3D2E902E60CF4E0546FF3F8
:101430005F23156923440EF40074234405F48045AA
:101440002B4406F40046334456690025C0F2FF15CC
:1014500005EA06469569334405F00076156A33447B
:1014600005F08046D2693343066802F0004206EB7D
:10147000C1111A43D1F8B83042F20006C3F6004653
:1014800033401A43C1F8B8200121002380F8DD1051
:1014900080F8DC30BDE870401846704770B582B007
:1014A00000284AD00446022084F8DD0004F1E00060
:1014B0001C21FEF7E5FE207AC0071FD0206846F603
:1014C0000001C4F2010188420CD141F26001C4F272
:1014D00002010A6842F080620A60096801F08061D6
:1014E000019101990168D4E9042321F4704102F4C7
:1014F0004042114403F4405211440160204600F080
:1015000020F8207A800706D52068E1680268090A79
:1015100061F30922026001200025002684F8DD0025
:1015200084F8DC50A11901F118000D631421FEF7B5
:10153000A7FE1C36C42EF5D100E00125284602B0D6
:1015400070BD006846F60001C4F20101884218BF70
:10155000704781B041F26000C4F20200016841F0BE
:1015600080610160006800F080600090009801B028
:1015700070472DE9F04387B0044602A81421FEF716
:101580007FFE206846F60001C4F2010188425AD16C
:1015900041F24C00C4F20200016840F6000541F03F
:1015A000020101600168C4F6000501F00201019129
:1015B0000199016802AC41F00401016001684FF03B
:1015C000020801F00401019101990168002741F02E
:1015D000010101600068032600F0010001900198FC
:1015E0004FF4704002904FF00D09A5F58060214640
:1015F000CDF80C8004970596CDF81890FFF7F4FD10
:10160000C020CDE9020828462146CDE90476CDF870
:101610001890FFF7E9FD4FF44070CDE90208284625
:101620002146CDE904760696FFF7DEFD4FF47060A3
:10163000CDE902084FF090402146CDE90476CDF87F
:101640001890FFF7D1FD07B0BDE8F083F0B581B089
:101650000D460446FFF7A6FE2168D1F88823D20381
:101660000ED406466F1C00BF37B1FFF79BFE7DB15D
:10167000801BA8420CD82168D1F88803C003F3D599
:10168000012084F8DD00002084F8DC0001B0F0BD0A
:10169000072084F8DD000320F8E790F8DD30022B06
:1016A0004FF0020330D010B580F8DD300368062912
:1016B00010D11968D2E900CED2E9024221F01F010F
:1016C00024F01804214311431960C3F814C0C3F86F
:1016D00018E013E003EBC111D1F88030D2E900EC3F
:1016E000D2E9024223F01F0324F0180423431A43D3
:1016F000C1F88020C1F894E0C1F898C0012100230E
:1017000080F8DD10BDE810401846704790F8DDC045
:10171000BCF1020F02D14FF0020C9CE090F8DCC04B
:10172000BCF1010F4FF0020C00F09580B0B54FF006
:10173000010E062980F8DCE080F8DDC00ED1511ED4
:1017400007291FD80FF20402DFE801F0042E1C2342
:101750001C1C1C4F19680268D1616CE0A2F1010CDD
:10176000BCF1070F0ED80FF20602DFE80CF00421DF
:101770000B160B0B0B4202681B6802EBC111C1F880
:101780009C3058E0072180F8DD10002180F8DC1043
:1017900051E01968026891624DE002681B6802EB33
:1017A000C111C1F8A83046E019680268516242E0F0
:1017B0000268D3E9004E803202EBC11CC901CCF8AB
:1017C00024405458BEF1000F24F44054545032D0F9
:1017D000DCF80010BEF5405F41EA0E01CCF80010C5
:1017E00026D0BEF5005F1FD025E019680268D162DF
:1017F00021E00268D3E900E502F1800404EBC11C9A
:10180000C901CCF82CE0625822F44042625095B1F4
:10181000DCF80010B5F5405F41EA8501CCF8001016
:1018200006D0B5F5005F06D19968CCF81C1002E02F
:101830009968CCF8281090F8DD10072902D14FF0F4
:10184000010C06E001214FF0000C80F8DD1080F85B
:10185000DCC0BDE8B0406046704790F8DC20012A4B
:101860004FF002020BD080F8DD20026813681943A4
:1018700011600121002280F8DD1080F8DC20104684
:101880007047B0B5044690F8DD00022804BF02207E
:10189000B0BD94F8DC0001284FF0020008BFB0BDD5
:1018A000012584F8DC5084F8DD00204602F07EF942
:1018B000002084F8DD5084F8DC00B0BD90F8DC2016
:1018C000012A4FF002020DD080F8DD200268D2F824
:1018D00094331943C2F894130121002280F8DD10DB
:1018E00080F8DC201046704790F8DD30022B01D1E3
:1018F000022354E190F8DC30012B4FF0020300F09A
:101900004E812DE9F04F8EB080F8DD300368062956
:1019100043D11F68D3F8A013566927F0E00726F0DB
:10192000C005202E47EA050759D147F020074FF29E
:10193000FF36C3F2FF16D569374006F500662E4024
:10194000156A374325F06E46556A374325F06846D9
:10195000956A374325F06046D56A374347EA8507DD
:10196000566B27F000573743166B21F48031314313
:101970001F60C3F8A013D2E90017D2E90265C0E9DD
:1019800032171169C0F8D060C0E93551D3F884131B
:1019900041F00101C3F88413F8E003F18007CE01A0
:1019A000BD5907EBC11C25F07045BD51BD596746B7
:1019B00057F8686F25F02005CDE90A67674657F8A4
:1019C00064AF0D97D3F8A07356690C97202E46EAA2
:1019D00005090ED129F4D07505F120091EE096699C
:1019E000042E15D0032E0ED0022E9ED027F0E00735
:1019F0009DE79569042D0ED0032D07D0022DE9D067
:101A000029F4D0790AE047F0400790E7012503E088
:101A100047F080078BE7022565F3C819D769D2E93B
:101A20000EE40197176A05940297D2E90967146CCE
:101A30000397D76A07940997576B956D0497D2E976
:101A40001147089547F48055B5F5F05F156D06957B
:101A50002AF4807544EA050A02D1BEF1400F03D191
:101A60002AF4F05444EA070AD2F84CB0546D052920
:101A700000940ED84BA454F82140176B35460C9EA9
:101A800001F1010834402E4607FA08F545EA04083A
:101A900001E0DDF830804FF2FF34C0F2FF14019F07
:101AA00009EA040504F500643C402C43029DDDF87E
:101AB0002490ADB22C434FF6BF75C0F200652E40A6
:101AC0003443039E05F1006535402C434FF6BF7546
:101AD00044EA0904CFF600652C40049D0A9EB5F146
:101AE000005F4FF6C075C7F6FF7505EA0605059E4F
:101AF00008BF04F5003406F03F063544079E05296B
:101B000045EA06054FF6FF76CFF602660EEA0607AF
:101B100047EA0407089C06F5802606EA040647EA19
:101B20000607069E47EA0607CCF800700B9F3D604B
:101B30002AF480470D9E47EA0B073760009FCCF8D8
:101B40005470C3F8A083C1EBC107D2E9006500EB74
:101B500087073E6296687D62D568C7E90A6516699F
:101B60003E6307D815A757F82110D3F8847339437B
:101B7000C3F88413B9F1000F08D1DCF80010D26D5E
:101B800021F4007141EA4221CCF800100121002328
:101B900080F8DD1080F8DC300EB0BDE8F04F18465C
:101BA000704700BFFFFFFDFFFFFFFBFFFFFFF7FFD9
:101BB000FFFFEFFFFFFFDFFFFFFFBFFF020000009F
:101BC00004000000080000001000000020000000D9
:101BD0004000000090F8DD30022B01D1022344E0E8
:101BE00090F8DC30012B4FF002033ED02DE9F0419C
:101BF00080F8DD30D0F800C04FF6EF740CEBC11E5A
:101C00005EF8EC3FCFF6EC7492E8600123400134BB
:101C1000D76804EA0514234326F44034234327F409
:101C2000003495692343012D43EA080309D1D2E921
:101C3000042423F0060322F002021A43224342F056
:101C400001030629CEF8003007D809A252F8211066
:101C5000DCF884231143CCF884130121002380F89D
:101C6000DD1080F8DC30BDE8F0411846704700BF59
:101C70000200000004000000080000001000000046
:101C800020000000400000000100000040F20400BD
:101C900040F6E031C2F20000C2F2000100680A68BA
:101CA00010440860704780B5032000F089F80F20C9
:101CB00000F007F808B1012080BD00F02CF80020EA
:101CC00080BDB0B540F20401C2F200010968F9B16B
:101CD000044640F20000C2F200004FF47A7200683D
:101CE000B2FBF1F1B0FBF1F001F00CF80F2C4FF06A
:101CF00001050ED868B94FF0FF30214600220025BB
:101D000000F033F840F20800C2F20000046000E086
:101D100001252846B0BD82B041F25800C4F202004D
:101D2000816841F001018160816801F00101019148
:101D30000199016841F080510160006800F0805015
:101D40000090009802B000F0BCB800280CD400F05D
:101D50001F01012202FA01F11C2202EAD0004EF218
:101D60000012CEF200028150704710B54EF60C5CA6
:101D7000CEF2000CDCF80030C3F3022E8EF0070424
:101D8000042C28BF0424BEF103034FF0FF3E0EFADB
:101D900004F438BF0023A14399400EFA03F39A4399
:101DA000114300F00F0200F160430901043A03F50A
:101DB00064436244002848BF02F10C03197010BD4F
:101DC0004EF60C51CEF200010A684FF6FF031A409E
:101DD00060F30A2242F0806040F0FD7008607047B6
:101DE00047F2000CC4F2000CDCF80020B0F5007FD4
:101DF0002ED000285ED1DCF8800002F4C06220F40E
:101E00008070B2F5806FCCF8800058D1DCF800000B
:101E1000012262F34A20CCF8000040F20000C2F236
:101E200000000068322358434DF68363C4F21B332D
:101E3000A0FB030302EB9340002200BFDCF8141068
:101E4000013842F1000349052DD5002BF6D12AE0D7
:101E5000DCF8800002F4C06140F48070B1F5806F5E
:101E6000CCF880002BD1DCF80000012161F34A207E
:101E7000CCF8000040F20000C2F2000000683222FC
:101E800050434DF68362C4F21B32A0FB020201EB09
:101E900092400022DCF81410013842F10003490599
:101EA00001D5002BF6D1DCF81400400544BF032017
:101EB000704704E0022060F34A22CCF800200020A2
:101EC000704747F20800C4F20000016841F4804105
:101ED000016070472DE9F04182B00446807841F2FC
:101EE0000C060007C4F2020601D400204FE0F06C9B
:101EF0005FEAC00808D4F06C40F08050F064F06CE9
:101F000000F080500190019847F20007C4F20007EA
:101F1000386840F480703860FFF744FA054600BF27
:101F20003868C00506D4FFF73DFA401B0228F7D9F0
:101F3000032025E0D6F8840010F4407017D0216DFE
:101F4000884211D0D6F88400D6F8841020F440706E
:101F500041F48031C6F88410D6F8841021F4803121
:101F6000C6F88410C6F88400C00740F0E880D6F8B0
:101F70008400216D20F440700843C6F884000020DE
:101F8000B8F1000F03D4F16C21F08051F1642168A5
:101F9000CA0705D0F26F636822F003021A43F267A2
:101FA0008A0705D5F26FA36822F00C021A43F26784
:101FB0004A0705D5F26FE36822F030021A43F26750
:101FC0000A0705D5F26F236922F0C0021A43F267AF
:101FD000CA0605D5F26F636922F440721A43F267AC
:101FE0008A0605D5F26FA36922F440621A43F267AC
:101FF0004A0605D5F26FE36922F440521A43F267AC
:102000000A0605D5F26F236A22F440421A43F267AA
:10201000CA0505D5F26F636A22F440321A43F267AB
:102020008A0307D5D6F89020A36A22F003021A4348
:10203000C6F890208A0505D5F26FE36A22F44022A3
:102040001A43F2674A050CD5F26F236B22F4401253
:102050001A43B3F5801FF26703D1326842F480124D
:1020600032600A050CD5F26F636B22F440021A430A
:10207000B3F5800FF26703D1326842F48012326008
:10208000CA040CD5F26FA36B22F040721A43B3F16D
:10209000807FF26703D1326842F4801232608A0492
:1020A0000CD5F26FE36B22F040621A43B3F1006F7C
:1020B000F26703D1326842F4801232604A040CD5D0
:1020C000F26F236C22F040621A43B3F1006FF267A3
:1020D00003D1326842F4801232600A040CD5F26FE8
:1020E000636C22F040521A43B3F1805FF26703D170
:1020F000326842F480323260CA030CD5F26FA36CAE
:1021000022F040421A43B3F1804FF26703D13268A4
:1021100042F48032326049030ED5D6F89010E26C5A
:1021200021F440111143B2F5001FC6F8901003D1FD
:10213000316841F48011316002B0BDE8F081FFF7F1
:1021400031F9054641F28837D6F8840080073FF51B
:102150000EAFFFF727F9401BB842F5D9E8E60000BB
:102160002DE9F047002862D042F2000AC4F2020AC8
:102170000446DAF800000D4600F00F0088420CD249
:10218000DAF8000020F00F002843CAF80000DAF85F
:10219000000000F00F00A84249D1206841F2080871
:1021A000C107C4F2020802D181077CD494E06268BE
:1021B00058F8081C022A38D0032A3BD1890136D5A9
:1021C000D8F80410D8F8042042F20047C2F30312F2
:1021D00001F00301D8F804300132C0F2F4070329FA
:1021E00004BF41F20027C0F27A07B7FBF2F1D8F83A
:1021F0000420C3F306235943C2F34162022303EBD5
:102200004202B1FBF2F14BF20042C0F2C4429142F1
:1022100008D9D8F8001011F0F00F15D0800701D5BB
:10222000A06888B14FF0000917E0880304D40120AA
:10223000BDE8F0874805FAD500F0CBF84BF2004135
:10224000C0F2C4418842EDD9D8F80000082161F3FA
:1022500007104FF00109C8F80000D8F800006168C5
:1022600020F003000843C8F80000FFF79BF806467B
:1022700041F28837D8F80000616800F00C00B0EB3C
:10228000810F05D0FFF78EF8801BB842F2D940E0ED
:102290002068810707D4B9F1000F1DD0D8F80010CD
:1022A00021F0F00116E0410705D5D8F8001041F4FF
:1022B000E061C8F80010010706D5D8F80010072221
:1022C00062F30D21C8F80010D8F80010A26821F0C0
:1022D000F0011143C8F80010DAF8001001F00F0106
:1022E000A9421AD9DAF8000020F00F002843CAF8F2
:1022F0000000FFF757F8064641F28837DAF8000089
:1023000000F00F00A84207D0FFF74CF8801BB8423E
:10231000F4D90320BDE8F0872068410707D5D8F835
:102320000010E26821F4E0611143C8F800100007D2
:1023300008D5D8F80000216920F4605040EAC100B7
:10234000C8F8000000F045F8D8F8001045F64E2215
:10235000C1F30311C0F60002515C40F2000201F02B
:102360001F0120FA01F140F20800C2F200000068EB
:10237000C2F200021160BDE8F047FFF7A2BC40F2D4
:10238000000041F20801C2F20000C4F2020100683C
:10239000096845F65E22C1F30221C0F60002515CD5
:1023A00001F01F01C840704740F2000041F20801EF
:1023B000C2F20000C4F202010068096845F65E221C
:1023C000C1F3C221C0F60002515C01F01F01C840F8
:1023D000704741F20801C4F20201086842F200426B
:1023E000C0F2F40200F00C000428104608BF704749
:1023F000086800F00C00082841F20020C0F27A00C2
:1024000024D00B6803F00C030C2B1CBF002070477A
:1024100080B5D1F804C04B680CF0030CC3F3031E65
:102420004B680EF1010EBCF1030F08BF024649686C
:10243000B2FBFEF0C3F30623C1F34161022258430D
:1024400002EB4101B0FBF1F0BDE8804070470000B5
:1024500000285FD02DE9F04182B00446007841F2B7
:102460000006C007C4F2020656D12078800774D453
:102470002078000700F198802078400700F1B680AE
:102480002078800600F10281E569002D00F01B82B2
:10249000B06800F00C000C2840F04C81012D00F0D9
:1024A000E080F068216A00F003028A4240F0D9809F
:1024B000626A6FF00F0300F0F00103EB0212914229
:1024C00040F0CF80A16A00F4FE42B2EB012F40F051
:1024D000C880E16A00F07842B2EBC16F40F0C18081
:1024E000226B0023CFF6E07303EA025200F4C0012E
:1024F000A2F50012914240F0B480616B4FF07E4231
:1025000002EA016100F0C06001F17E41884240F0C2
:10251000A880D8E101207047B06800F00C01F06895
:1025200008295AD0032281F00C0122EA0000084455
:10253000B0FA80F0400950D161683068B1F5803F51
:1025400007D0B1F5A02F40F0CC8040F4802030605F
:10255000306840F480303060CCE0B068F16800F062
:102560000C00042867D001F0030180F00C0081F01A
:1025700002010844B0FA80F040095CD1E16830689B
:10258000002900F0C58040F480703060FEF70AFF3B
:10259000054600BF3068400500F1EE80FEF702FFFF
:1025A000401B0228F6D91EE16169D6F89400002983
:1025B00000F0858040F00100C6F89400FEF7F2FEBE
:1025C000054600BFD6F8940080073FF555AFFEF7EB
:1025D000E9FE401B0228F5D905E1306880037FF54C
:1025E00044AF606800287FF440AF3AE0B06D5FEA26
:1025F000C00808D4B06D40F08050B065B06D00F0F8
:1026000080500190019847F20007C4F20007386833
:10261000C00528D4386840F480703860FEF7C2FEE8
:10262000054600BF3868C0051DD4FEF7BBFE401B41
:102630000228F7D9D7E03068400501D5E06880B1BD
:102640007068216920F0FE4040EA0160706040F24D
:102650000800C2F200000068FFF733FB00283FF4D7
:1026600007AF012030E1A168D6F89000012908D019
:10267000052940F09E8040F00400C6F89000D6F88E
:10268000900040F00100C6F890009DE0A169D6F8E6
:102690009800002978D040F00100C6F89800FEF7B5
:1026A00081FE0546D6F8980080073FF5EDAEFEF7AF
:1026B00079FE401B02284FF00300F3D904E120F01B
:1026C0000100C6F89400FEF76DFE0546D6F89400AA
:1026D00080077FF5D1AEFEF765FE401B0228F5D9D5
:1026E00081E020F4803030603068002920F48020C0
:1026F00030607AD0FEF756FE054600BF3068800392
:102700003FF5B3AEFEF74EFE401B6428F6D96AE0F3
:1027100020F480703060FEF745FE054630684005C5
:102720007FF5A6AEFEF73EFE401B02284FF00300E9
:10273000F4D9C9E0306820F080703060FEF732FED6
:10274000022D05460CD100BF3068800177D5FEF719
:1027500029FE401B02284FF00300F5D9B4E000BF6A
:102760003068800140F1A880FEF71CFE401B022863
:102770004FF00300F4D9A7E07068216920F0FE4013
:1027800040EA0160706073E620F00100C6F898002E
:10279000FEF708FE054600BFD6F8980080077FF5D3
:1027A00073AEFEF7FFFD401B02284FF00300F3D984
:1027B0008AE020F00100C6F89000D6F8900020F0E2
:1027C0000400C6F89000F9B1FEF7ECFD054641F2B1
:1027D000883700BFD6F89000800727D4FEF7E2FDC7
:1027E000401BB842F6D903206EE0FEF7DBFD05463C
:1027F000306880037FF539AEFEF7D4FD401B6428B6
:102800004FF00300F4D95FE0FEF7CCFD054641F23E
:10281000883700BFD6F89000800707D5FEF7C2FDC5
:10282000401BB8424FF00300F4D94DE0B8F1000F5F
:102830003FF526AEB06D20F08050B06520E6F06820
:1028400048F20C01C0F29F1104F1200700EA010CCC
:102850008ECF6FF00F00D4E90C5400EB0210002271
:10286000CFF6E07241EA0C0102EA05520843A2F5F4
:1028700000124FF07E4540EA032005EA046510434C
:1028800005F17E4540EAC7602843F060306840F0BB
:1028900080703060F06840F08070F060FEF782FD7C
:1028A0000446306880010ED4FEF77CFD001B022830
:1028B0004FF00300F5D907E0F0684FF6FC71CFF652
:1028C000EE610840F060002002B0BDE8F081704782
:1028D00090F85D00704738B1B0B50446406A28B141
:1028E00000202061142006E0012070476068B0F5E8
:1028F000827F02D01C20002121500025A56294F87F
:102900005D0020B9204684F85C5000F052F80220A7
:1029100084F85D002068D4F80CE00268BEF5E06F32
:1029200022F0400202604EF4006298BF0125B2F529
:10293000706F1CBF0023A3624FEA053CD4E9013548
:10294000D4E9042103F4827305F404452B4402F016
:1029500002021A44A36901F00101E569114403F47C
:102960000072114405F03802256A114405F0800216
:10297000A56A114405F40052114301600421626A02
:102980000EF4706501EA1341636B45EA0C0502F031
:102990001002294303F00803114319434160C16940
:1029A00021F40061C16100200121206684F85D10DE
:1029B000B0BD70B586B0044601A81421FDF760FCD7
:1029C000206843F20001C4F2010188423FD141F284
:1029D0004C00C4F202004169002641F4805141617B
:1029E000416901F4805100910099016841F00101B1
:1029F0000160006801A900F0010000900098A0208B
:102A0000019002200290052005904FF09040CDE902
:102A10000366FEF7E9FB40F2586540F20840C2F257
:102A20000005C4F202000B21102285E847004FF494
:102A30008050802328622846C5E90436C5E9066629
:102A4000FEF7EFFA08B1FDF73DFD6565AC6206B033
:102A500070BD00002DE9F04182B01D4616460F46BC
:102A60000446FEF79FFC94F85D10012908D18046CA
:102A70004FF001002FB126B194F85C00012803D17A
:102A8000022002B0BDE8F081012084F85C00032040
:102A9000002184F85D002166A763A687E68721648C
:102AA000A4F84410A4F84610A068E164B0F5004F03
:102AB0002068216507D1016821F0400101600168AB
:102AC00041F4804101600168490603D4016841F086
:102AD000400101606168731EE268B1FA81F1B3FAE6
:102AE00083F349095B09B2F5E06F41EA030123D999
:102AF00031B137F8021BC160A763E08F0138E0876E
:102B0000E08F002854D06E1C20688168890707D4A4
:102B1000FEF748FC66B1A0EB0800A84208D364E0C9
:102B2000A16B31F8022BC260A163E08F0138E0870E
:102B3000E08F0028E8D13BE000294FF6FE7111D06C
:102B4000E28F022A05D337F8022BC2604FF6FE70DF
:102B500004E03A780273A06B471C481CA763E28F1D
:102B60001044E087E08F18B36E1C4F1C2168886802
:102B7000800707D4FEF716FCBEB1A0EB0800A84200
:102B800013D332E0E28FA06B022A05D330F8022B78
:102B9000CA604FF6FE7104E000780873A06B3946F6
:102BA0000130A063E08F0844E087E08F0028DDD18A
:102BB00020462946424602F06CF908B120202066E2
:102BC000A06838B9002001902068C1680191806830
:102BD00001900198012084F85D00002084F85C00D9
:102BE000206E002818BF01204BE7012084F85D000B
:102BF000002084F85C00032043E770B5044690F899
:102C00005D00012809D100294FF0010077D0002A8A
:102C100075D094F85C00012801D1022070BD01201C
:102C200084F85C000320002384F85D002366A16320
:102C3000A287E2872364C4E91333A4F84430A4F8DC
:102C40004630A0682268B0F5004F07D1106820F028
:102C500040001060106840F480401060606D44F6E1
:102C6000196E44F61F6544F6FB56C0F6000EC0F61A
:102C70000005C0F60006C0E90B5EC0E90D63D4F89C
:102C80000CC05368BCF5E06F23F48043536015D843
:102C90008369B3F5806F11D1E68F5368F60705D1CC
:102CA00023F480435360E38F5B0806E043F48043E2
:102CB0005360E38F012606EB5303E387E38F0C3267
:102CC000FEF739FA40B1206E40F010002066002077
:102CD00084F85C00012070BD21680868400603D4B8
:102CE000086840F040000860002084F85C004A68F2
:102CF00042F020024A604A6842F002024A6070BD17
:102D000070477047411E0020B0EB116F1CBF0120BF
:102D100070474EF21002CEF2000251604EF623517F
:102D2000CEF20001F0230B70072190601160704714
:102D300070477047704770477047704790F83C2065
:102D4000012A4FF0020261D070B580F83D20026880
:102D500042F6004C54689368C4F2010C45F2000E30
:102D60006245C4F2010E18BF724528D14D6824F4A3
:102D700070042C434FF68F75CFF6FF550E682C402C
:102D800042F6FF35C4F201053443AA4254600BDC1D
:102D900040F2FF76C4F20006B24217DCB2F1804F77
:102DA00027D040F2004619E043F6FF74C4F2010454
:102DB000A24216DC62451CD043F2004615E043F205
:102DC0000045C4F20105AA42D0D0D3E740F6000680
:102DD000C4F20006B2420CD040F60046C4F200062F
:102DE00005E0724505D044F20006C4F20106B24285
:102DF00004D1896823F080031943916001210022E6
:102E000080F83D1080F83C20BDE8704010467047C7
:102E1000704760B310B5044690F83D0028B9002013
:102E200084F83C00204600F024F8022084F83D009D
:102E30002068211D02F074F9012084F8480084F80C
:102E40003E0084F83F0084F8400084F8410084F894
:102E5000420084F8430084F8440084F8450084F874
:102E6000460084F8470084F83D00002010BD012092
:102E7000704780B582B0006841F2FF31C4F20001B2
:102E8000884225DC40F20041C4F20001884245D06E
:102E900040F60001C4F2000188425FD041F2000117
:102EA000C4F20001884266D141F25800C4F2020027
:102EB0000168002241F0100101600068002100F06B
:102EC0001000019001983620FEF74FFF362067E092
:102ED00041F20041C4F2000188422BD044F200418B
:102EE000C4F20101884248D044F60001C4F2010155
:102EF000884240D141F25800C4F2020081680022A9
:102F000041F4802181608068002100F480200190DC
:102F100001981A20FEF729FF1A2041E041F25800DB
:102F2000C4F20200016841F002010160006800F093
:102F300002001EE041F25800C4F2020001680022C3
:102F400041F0200101600068002100F020000190A4
:102F500001983720FEF709FF372021E041F25800A1
:102F6000C4F20200016841F004010160006800F051
:102F700004000190019802B080BD41F25800C4F2F3
:102F800002008168002241F40031816080680021E4
:102F900000F40030019001981920FEF7E6FE192098
:102FA00002B0BDE88040FEF7D0BE90F83D10012988
:102FB00019D1022180F83D10016842F6FF32C8683D
:102FC000C4F20102914240F00100C8600DDC40F201
:102FD000FF70C4F20000814216DCB1F1804F2AD0AC
:102FE00040F2004018E00120704743F6FF70C4F241
:102FF0000100814213DC42F60040C4F2010081422C
:1030000019D043F2004012E040F60000C4F2000084
:10301000814210D040F60040C4F2000009E045F2C1
:103020000000C4F20100814205D044F20000C4F265
:10303000010081420CD188680722C0F201020240DF
:10304000062A4FF00000CFD0B2F5803F08BF70478E
:10305000086840F0010008600020704790F83C20AC
:10306000012A4FF0020200F0968080B580F83D20E2
:10307000D0F800C08822DCF80830CFF6CE721A40B3
:10308000CCF808200B68B3F5005F0DDA3F2B21DD8B
:103090005F2B38DD602B00F0A680702B00F0908055
:1030A000B3F5805F6ED0E2E02F22C0F210029342AF
:1030B00017DD4F21C0F210018B424CDD5021C0F2D0
:1030C00010018B4252D06021C0F210018B424DD0D2
:1030D000702146E01F2B0EDC002B47D0102B45D073
:1030E000C5E0B3F1101F0BDAB3F5005F55D0B3F5AF
:1030F000801F3BD0BBE0202B38D0302B36D0B6E041
:1031000034D020212DE0402B00F08F80502B40F058
:10311000AE80D1F804E0C968DCF82030DCF820206B
:1031200022F00102CCF82020DCF8182022F0F00276
:1031300042EA011123F00A0242EA0E02CCF818100A
:10314000CCF82020DCF808104FF68872CFF6CF724A
:103150001140573114E03021C0F210018B4205D0EC
:103160004021C0F210018B4240F08180DCF8081051
:103170004FF68872CFF6CF721140194341F0070124
:10318000CCF808100022012180F83D10002180F8C1
:103190003C10BDE8804010467047D1E901E3C968A2
:1031A000DCF8082043EA0E0322F47F4243EA0121BF
:1031B0001143CCF80810DCF8081041F48041DFE737
:1031C000D1E901E3C968DCF8082043EA0E0322F4E0
:1031D0007F4243EA01211143CCF80810DCF80810C3
:1031E00041F07701CCE7D1F804E0C968DCF8203081
:1031F000DCF8202022F01002CCF82020DCF8182087
:1032000022F4704242EA013123F0A00242EA0E1297
:10321000CCF81810CCF82020DCF808104FF6887293
:10322000CFF6CF7211406731AAE7D1F804E0C96840
:10323000DCF82030DCF8202022F00102CCF820203D
:10324000DCF8182022F0F00242EA011123F00A0211
:1032500042EA0E02CCF81810CCF82020DCF8081056
:103260004FF68872CFF6CF721140473188E70122BE
:1032700089E77047F0B581B004460068C568066903
:10328000B10716D515F0020113D06FF002010161EC
:10329000012121778069800703D02046FFF7E9FFED
:1032A00005E0204600F0C6F8204600F0C4F80020F3
:1032B0002077700718D515F0040015D020686FF03E
:1032C0000401016102212177806910F4407F03D05D
:1032D0002046FFF7CEFF05E0204600F0ABF8204681
:1032E00000F0A9F800202077300717D515F0080066
:1032F00014D020686FF00801016104212177C069B2
:10330000800703D02046FFF7B4FF05E0204600F019
:1033100091F8204600F08FF800202077F00618D5AD
:1033200015F0100015D020686FF010010161082120
:103330002177C06910F4407F03D02046FFF799FF42
:1033400005E0204600F076F8204600F074F80020F2
:103350002077F00718BF15F0010006D020686FF045
:1033600001010161204600F067F816F4025F05F0E4
:10337000800718BF002F06D020686FF4025101614A
:103380002046FFF7D6FCF00507D537B120686FF46B
:10339000807101612046FFF7CBFC700609D515F05E
:1033A000400006D020686FF040010161204600F027
:1033B00083F8B00609D515F0200006D020686FF01C
:1033C000200101612046FFF7B5FCF00209D515F494
:1033D000801006D020686FF4801101612046FFF74D
:1033E000ABFCB00209D515F4001006D020686FF4CC
:1033F000001101612046FFF79EFC700209D515F40B
:10340000800006D020686FF4800101612046FFF73C
:1034100094FC30020CD515F4000009D021686FF43B
:10342000000220460A6101B0BDE8F040FFF7F0BCA1
:1034300001B0F0BD70477047B0B50446006841F276
:103440000005C4F20005A84202D102F0EDF920689F
:1034500005F58061884209D140F2B860C2F20000EF
:10346000002140F2153201F0A4FC206805F59A31E4
:10347000884215D140F2B040C2F2000040F6C0319F
:1034800090E80C10C068C2F20001C86040F67420D9
:1034900081E80C10C2F20000042202F055FA206804
:1034A00005F59C31884218BFB0BD1920042148227F
:1034B000BDE8B04001F05BBC704790F88410012972
:1034C00001D1022112E02421C0F88810026811689D
:1034D000136823F00103136021F0005300214166BB
:1034E00013602022C0F8882080F8841008467047B6
:1034F00070477047B0B5044690F88400012804BFB7
:103500000220B0BD012084F884002420C4F8880083
:1035100020680568026822F001020260826822F0D9
:10352000606211438160204601F0A9FE20680560B9
:103530002020C4F88800002084F88400B0BDB0B515
:10354000044690F88400012804BF0220B0BD012089
:1035500084F884002420C4F8880020680568026884
:1035600022F001020260826822F060421143816011
:10357000204601F084FE206805602020C4F8880001
:10358000002084F88400B0BD704770477047000089
:1035900070B5016840F62F03CA69044608688E6852
:1035A0001340202B0DD100F0200306F080555B194D
:1035B00018D0616F002900F089812046BDE8704075
:1035C000084740F60F031A420CD00123C1F2000352
:1035D00006EA030C40F22013C0F20043034013EB51
:1035E0000C0355D1E36ED50645D5012B43D110F020
:1035F000100340D0102008628868400600F1D48093
:10360000B4F85C00B4F85E10B4F85E20002A00F054
:103610005D81884200F05A81401A00BF216851E85C
:10362000001F226821F4907142E80013002BF5D1AD
:103630004FF6FE71CEF6FF71226852E8022F236822
:103640000A4043E80226002EF6D12021C4F88C104F
:103650000021E166616700BF216851E8001F226810
:1036600021F0100142E80013002BF5D1022281B2B3
:1036700020462267E3E0D30273D516F4800370D0AE
:103680004FF4801220460A62BDE87040FFF77DBF0C
:10369000D30718BF10F4807307D001230B62D4F84E
:1036A000903043F00103C4F89030930706F0010E08
:1036B0000AD5BEF1000F07D002230B62D4F8903078
:1036C00043F00403C4F8903053070AD5BEF1000F4D
:1036D00007D004230B62D4F8903043F00203C4F8FF
:1036E000903013070CD500F0200353EA0C0307D0E9
:1036F00008230B62D4F8903043F00803C4F89030EC
:1037000013050BD510F0806308D04FF400630B62F3
:10371000D4F8903043F02003C4F89030D4F89030BF
:10372000002B00F0D38092060AD500F0200006F0AE
:103730008052801804D0626F12B1204690472168F1
:10374000D4F89000896800F0280001F0400140188A
:1037500040F08A802046FFF719FF0020C4F890004F
:10376000B4E0110606D500F0800106F40003C91884
:1037700040F09B8051066DD510F040016AD000BF2B
:10378000206850E8000F216820F0400041E8000266
:10379000002AF5D120200021C4F888002046A16726
:1037A000BDE8704000F001BAD4F8800000684268BB
:1037B000B4F85C3091B2002945D0994243D2A4F8C4
:1037C0005E200068800631D4206850E8000F216830
:1037D00020F4807041E80002002AF5D1206850E80A
:1037E000020F216820F0010041E80202002AF5D111
:1037F000206850E8020F216820F0400041E80202F2
:10380000002AF5D12020C4F88C000020E06600BF1B
:10381000206850E8000F216820F0100041E8000205
:10382000002AF5D1D4F88000FDF739FB022020678B
:10383000B4F85C00B4F85E10401A81B22046BDE8CE
:103840007040FFF755BE8B4240D1006880063DD5E1
:1038500002220DE711022FD510F080412CD0204616
:10386000BDE87040FFF790BE204601F0FDFD2068E6
:10387000806840061BD500BF206850E8020F216811
:1038800020F0400041E80202002AF5D1D4F880007F
:1038900068B145F25B41C0F600018163FDF736FB7C
:1038A000A0B1D4F88000816B88E6A16F82E6204643
:1038B000BDE87040FFF76ABED10107D5B0F1FF3F08
:1038C00004DC2046BDE87040FFF713BE70BD10B5A4
:1038D000D0B10446D0F8880028B9002084F88400CC
:1038E000204600F025F82420C4F888002068A16A4A
:1038F000026822F00102026011B1204601F0E8FCEA
:10390000204601F0DFFD08B1012010BD21684868A4
:1039100020F490404860886820F02A008860086899
:1039200040F0010220460A60BDE8104001F036BDBB
:10393000F0B59BB0044616A81421FCF7A1FC01A821
:103940005421FCF79DFC206844F20041C4F20001C0
:1039500088427CD045F20001C4F20001884234D094
:1039600044F60041C4F20001884240F0BC800820C7
:10397000019001A8FEF7AEFA08B1FCF7A3FD41F2F1
:103980004C00C4F20200C168342441F40021C1603B
:10399000C16801F4002100910099016841F004011F
:1039A0000160006800F00400009000984FF440604F
:1039B0001690022017900020CDE9180005201A90DB
:1039C00040F60000C4F6000082E01020019001A83B
:1039D000FEF780FA08B1FCF775FD41F24C00C4F225
:1039E0000200C16840F6000441F48011C160C16862
:1039F000C4F6000401F480110091009901680225C9
:103A000041F0040101600168002601F00401009109
:103A100000990168052741F008010160006816A9B6
:103A200000F00800009000984FF480501690204657
:103A30001795CDE918661A97FDF7D6FB042016A94D
:103A400061C1CDE9196704F58060352440E00224A6
:103A500001A80194FEF73EFA08B1FCF733FD41F2EC
:103A60004C00C4F20200C168002541F40031C1607D
:103A7000C168072601F4003100910099016841F006
:103A800001010160016801F00101009100990168E4
:103A900041F008010160006816A900F008000090DC
:103AA00000984FF40040CDE916044FF09040CDE966
:103AB00018551A96FDF798FB202016A931C140F63B
:103AC0000000C4F6000000F580602624CDE91956F8
:103AD00016A9FDF789FB204600210022FEF745F9D3
:103AE0002046FEF732F91BB0F0BD00002DE9F04191
:103AF00082B00446D0F8880020283CD10D46002929
:103B00004FF001004CD01746002A49D00020C4F8DD
:103B1000900021209846C4F88800FDF743FCA4F8E3
:103B20005470A4F85670A1680746B1F5805F01D1C2
:103B30002069C0B32E460025B4F85600E8B12046EF
:103B4000802100223B46CDF8008001F001FE18BB29
:103B500026B116F8010B2168886206E035F8020BE1
:103B600021686FF35F2088620026B4F856000138A0
:103B7000A4F85600E0E7022012E02046402100228F
:103B80003B46CDF8008001F0E3FD2021C4F8881009
:103B9000002818BF032003E02020C4F88800032079
:103BA00002B0BDE8F0810026C6E770472DE9F0417C
:103BB00000683F2A00F1800000EBC114A04658F8CD
:103BC00064EF4FF0000158F82CCC0ADC551E072D8D
:103BD0001AD80FF20602DFE805F0211B262126265F
:103BE000261BB2F5007F07DA402A17D0802A0FD0B3
:103BF000B2F5807F12D016E00AD0B2F5006F07D080
:103C0000B2F5806F0AD00EE0102A07D0202A0AD120
:103C1000D3E901126164A264102104E0D3E9011226
:103C2000E16300212264D3E90506D3E90347304369
:103C30001D683843FE2220438A4028432EEA0202B0
:103C40008840082F42EA000208D11CF4007008BF27
:103C50001CF0007002D1D86988400243C8F80020E7
:103C6000BDE8F081FEE710B58CB0002401A820214A
:103C70000B94CDE90944FCF703FB40F2C040C2F2CB
:103C800000004FF0A04C4FF440320421C0E900C2C4
:103C90004FF480728161828301624FF490614FF42E
:103CA00080620123C0E90B12142100F1440CC0E929
:103CB0000244C0E9044380F8244080F83830C463EB
:103CC00080F8403040228CE816000365FCF77EFE49
:103CD00008B1FCF7F7FB40F2C040C2F2000009A9AE
:103CE0000994FCF7F4FB08B1FCF7ECFB0220C0F2EE
:103CF0003040019006207F21029000200491042191
:103D00000390CDE9051040F2C040C2F2000001A9C5
:103D1000FCF76EFC08B1FCF7D5FB0420C0F6600090
:103D200001900C20029040F2C040C2F2000001A9B4
:103D3000FCF75EFC08B1FCF7C5FB0820C0F690401C
:103D400001901220029040F2C040C2F2000001A98E
:103D5000FCF74EFC08B1FCF7B5FB1020C1F2C00027
:103D600001901820029040F2C040C2F2000001A968
:103D7000FCF73EFC08B1FCF7A5FB0CB010BD10B57C
:103D80008CB0002401A820210B94CDE90944FCF754
:103D900077FA40F22C5040F2004CC2F20000C5F21B
:103DA000000C4FF440320421C0E900C24FF480728D
:103DB0008161828301624FF4B0614FF4806201231C
:103DC000C0E90B12142100F1440CC0E90244C0E91F
:103DD000044380F8244080F83830C46380F84030D1
:103DE00040228CE816000365FCF7F0FD08B1FCF7F3
:103DF00069FB40F22C50C2F2000009A90994FCF7BB
:103E000066FB08B1FCF75EFB0220C0F23040019077
:103E100006207F2102900020049104210390CDE927
:103E2000051040F22C50C2F2000001A9FCF7E0FBA3
:103E300008B1FCF747FB0420C0F6600001900C209D
:103E4000029040F22C50C2F2000001A9FCF7D0FB16
:103E500008B1FCF737FB0820C0F690400190122013
:103E6000029040F22C50C2F2000001A9FCF7C0FB06
:103E700008B1FCF727FB1020C1F2C0000190182008
:103E8000029040F22C50C2F2000001A9FCF7B0FBF6
:103E900008B1FCF717FB0CB010BD80B584B041F23F
:103EA0004800C4F202000168002241F004010160F0
:103EB000016801F0040103910399016841F00101D7
:103EC0000160016801F0010102910299016841F06D
:103ED000020101600068002100F0020001900198D9
:103EE0000B20FDF742FF0B20FDF72FFF0C200021D8
:103EF0000022FDF73AFF0C20FDF727FF38200021B4
:103F00000022FDF732FF382004B0BDE88040FDF705
:103F10001CBF2DE9F04186B00DF104084046142184
:103F2000FCF7AEF941F24C00C4F202000168002235
:103F300041F0200101600168502601F0200100914C
:103F400000990168002741F001010160016801F05A
:103F5000010100910099016841F0020101600168CE
:103F600001F0020100910099016841F01001016027
:103F7000016801F0100100910099016841F004010D
:103F80000160016801F0040100910099016841F0AD
:103F9000080101600068502100F0080000900098BE
:103FA0004FF09040FDF7F8F940F20045C4F60005E7
:103FB0002846202100222024FDF7EEF90196012653
:103FC0004FF090404146CDE902670497FDF70CF9A8
:103FD00001A8D0C0284641460497FDF705F906B070
:103FE000BDE8F081F0B5B7B01BAD002628466021D2
:103FF000CDE93566CDE93366FCF742F914A81C21FA
:10400000FCF73EF908A824211396CDE91166FCF7C8
:1040100037F96C4620462021FCF732F940F2B860AF
:1040200046F60001C2F20000C4F20101C0E9001628
:104030008660FDF733FA08B1FCF744FA40F2B86045
:10404000C2F200000C21FDF7B3F908B1FCF73AFA0F
:1040500040F2B860C2F200000A21FDF7F7FA08B199
:10406000FCF730FA4FF4AA4033900820369040F223
:10407000B86001270026C2F2000033AA0621349757
:104080003596FDF70AFB08B1FCF71CFA05F11400A0
:104090001421CDE91D66CDE91B661F97FCF7F0F8EA
:1040A0004FF00060CDE925064FF00050289040F217
:1040B000B860C2F2000006212A4627963296FDF724
:1040C00013FC08B1FCF7FEF90120349040F2B8600F
:1040D000C2F2000033AA00210025FDF7DEFA08B184
:1040E000FCF7F0F940F2B860C2F2000014AA002117
:1040F000149517951A95FDF76DFD08B1FCF7E2F9D7
:1041000000204FF48071CDE92C101021CDE91B0067
:10411000CDE929002B902F90CDE9301040F2B86006
:10412000C2F200001BAA0021FDF7DEFB08B1FCF77C
:10413000C9F940F2B860C2F200001BAA0121FDF7E4
:10414000D3FB08B1FCF7BEF940F2B860C2F2000040
:104150001BAA0221FDF7C8FB08B1FCF7B3F9002048
:104160002D9040F2B860C2F200001BAA0321FDF7B7
:10417000BBFB08B1FCF7A6F940F2B860C2F2000040
:104180001BAA0421FDF7B0FB08B1FCF79BF9002046
:104190002D9040F2B860C2F200001BAA0521FDF785
:1041A000A3FB08B1FCF78EF9A020119040F2B86093
:1041B000C2F2000011AB002101220025FDF7A6FA92
:1041C00008B1FCF77FF91020CDE90905CDE90D050F
:1041D00040F2B860C2F2000008AA00210895CDE9BB
:1041E0000B55CDE90F55FDF70DF908B1FCF76AF94C
:1041F00040F2B860C2F2000008AA0121FDF702F9FE
:1042000008B1FCF75FF940F2B860C2F2000008AAFA
:104210000221FDF7F7F808B1FCF754F940F2B86055
:10422000C2F2000008AA0321FDF7ECF808B1FCF780
:1042300049F940F2B860C2F2000008AA0421FDF773
:10424000E1F808B1FCF73EF940F2B860C2F20000B4
:1042500008AA0521FDF7D6F808B1FCF733F90020CC
:104260000090042001900820029004F10C00142119
:10427000FCF706F840F2B860C2F20000002101220B
:104280002346FDF7FEFA08B1FCF71CF940F2B860CE
:10429000C2F200006B4601210422FDF7F2FA08B1D8
:1042A000FCF710F940F2B860C2F200006B46022140
:1042B0001022FDF7E6FA08B1FCF704F940F2B86005
:1042C000C2F200006B4603214022FDF7DAFA08B182
:1042D000FCF7F8F840F2B860C2F200006B46042127
:1042E0004FF48072FDF7CDFA08B1FCF7EBF840F21D
:1042F000B860C2F200006B4605214FF48062FDF702
:10430000C0FA08B1FCF7DEF80020CDE9010040F268
:10431000B860C2F200006B4600210222FDF7B1FA3C
:1043200008B1FCF7CFF840F2B860C2F200006B466B
:1043300001210822FDF7A5FA08B1FCF7C3F840F205
:10434000B860C2F200006B4602212022FDF799FA04
:1043500008B1FCF7B7F840F2B860C2F200006B4653
:1043600003218022FDF78DFA08B1FCF7ABF840F28B
:10437000B860C2F200006B4604214FF40072FDF7F2
:1043800080FA08B1FCF79EF840F2B860C2F2000073
:104390006B4605214FF40062FDF773FA08B1FCF794
:1043A00091F80020349040F2B860C2F2000033AAC5
:1043B0000121FDF772F908B1FCF784F840F2B8600A
:1043C000C2F2000014AA0121FDF704FC08B1FCF7B9
:1043D00079F84FF4AF60119040F2B860C2F200007B
:1043E00011AB01210122FDF791F908B1FCF76AF840
:1043F00040F2B860C2F2000033AA0221FDF74DF985
:1044000008B1FCF75FF840F2B860C2F2000014AAED
:104410000221FDF7DFFB08B1FCF754F80A201190E8
:1044200040F2B860C2F2000011AB02210122FDF798
:104430006DF908B1FCF746F840F2B860C2F200002E
:1044400033AA0321FDF729F908B1FCF73BF840F244
:10445000B860C2F2000014AA0321FDF7BBFB08B14B
:10446000FCF730F86420119040F2B860C2F200000E
:1044700011AB03210122FDF749F908B1FCF722F83D
:1044800040F2B860C2F2000033AA0421FDF705F93A
:1044900008B1FCF717F840F2B860C2F2000014AAA5
:1044A0000421FDF797FB08B1FCF70CF840F2B86067
:1044B000C2F2000011AB04210122FDF727F908B177
:1044C000FCF700F840F2B860C2F2000033AA052100
:1044D000FDF7E3F808B1FBF7F5FF40F2B860C2F270
:1044E000000014AA0521FDF775FB08B1FBF7EAFFF0
:1044F0007820119040F2B860C2F2000011AB0521A3
:104500000122FDF703F908B1FBF7DCFF40F2B860C8
:10451000C2F20000FDF72DF837B0F0BDB0B540F2A3
:10452000B47043F2000EC2F20000C4F2010E4FF468
:1045300082724FF400434FF4E06C00214FF400749A
:104540002825C0E900E2C0E9023C07220823C0E9AF
:104550000411C0E90645C0E90811C0E90A12C0E922
:104560000C13FEF7B8F918B1BDE8B040FBF7AABFCD
:10457000B0BD80B540F6180044F20041C2F2000020
:10458000C4F2010100234FF0800EA92244F61F6CF3
:1045900080E80E10C0E90433C0F818E0FEF739FCDB
:1045A00018B1BDE88040FBF78DBF80BD80B540F6F7
:1045B000640044F60001C2F20000C4F201010023CD
:1045C0004FF0800EA92244F61F6C80E80E10C0E95F
:1045D0000433C0F818E0FEF71CFC18B1BDE88040B9
:1045E000FBF770BF80BD80B588B040F6B00040F2E8
:1045F00000420021C2F20000C4F20002A923079188
:10460000CDE905110291C0E90021C0E90213016161
:1046100080218161FEF7FDFB08B1FBF753FF4FF4EA
:104620008050049040F6B000C2F2000004A9FEF7EA
:1046300015FD08B1FBF746FF2020019000200390F4
:1046400040F6B000C2F2000001A9FEF777FB08B106
:10465000FBF738FF08B080BD80B588B040F6FC009D
:1046600040F600020021C2F20000C4F20002A923B9
:104670000791CDE905110291C0E90021C0E90213BB
:10468000016180218161FEF7C4FB08B1FBF71AFFCD
:104690004FF48050049040F6FC00C2F2000004A9E0
:1046A000FEF7DCFC08B1FBF70DFF20200190002095
:1046B000039040F6FC00C2F2000001A9FEF73EFBA9
:1046C00008B1FBF7FFFE08B080BD10B584B040F61E
:1046D000481041F20001C2F20000C4F200010024BF
:1046E000A922632380E8160080210294C3608161BF
:1046F000FEF78FFB08B1FBF7E5FE40F64810C2F26B
:10470000000001A901940394FEF718FB08B1FBF720
:10471000D9FE04B010BD10B584B040F6941041F23B
:104720000041C2F20000C4F200010024A922632368
:1047300080E8160080210294C3608161FEF769FB66
:1047400008B1FBF7BFFE40F69410C2F2000001A9C9
:1047500001940394FEF7F2FA08B1FBF7B3FE04B03C
:1047600010BD10B540F6742444F60040C2F20004B7
:10477000C4F200004FF4E13100220C2384E807006A
:1047800004F118001421C4E903226361FBF778FDEA
:104790002046FFF79CF808B1FBF794FE40F6742022
:1047A000C2F200000021FEF7CAFE08B1FBF78AFE44
:1047B00040F67420C2F200000021FEF79BFE08B113
:1047C000FBF780FE40F67420C2F20000FEF775FE93
:1047D00018B1BDE81040FBF775BE10BD10B540F62E
:1047E000083445F20000C2F20004C4F200004FF4A5
:1047F000E13100220C2384E8070004F118001421A1
:10480000C4E903226361FBF73BFD2046FFF75FF835
:1048100008B1FBF757FE40F60830C2F20000002155
:10482000FEF78DFE08B1FBF74DFE40F60830C2F2F0
:1048300000000021FEF75EFE08B1FBF743FE40F6E4
:104840000830C2F20000FEF738FE18B1BDE8104093
:10485000FBF738BE10BD10B540F6E01444F200403E
:10486000C2F20004C4F200004FF4E13100220C2334
:1048700084E8070004F118001421C4E903226361ED
:10488000FBF7FEFC2046FFF722F808B1FBF71AFE03
:1048900040F6E010C2F200000021FEF750FE08B121
:1048A000FBF710FE40F6E010C2F200000021FEF718
:1048B00021FE08B1FBF706FE40F6E010C2F2000050
:1048C000FEF7FBFD18B1BDE81040FBF7FBBD10BDC6
:1048D000FEE70000FEE7F0B581B040F20044C4F608
:1048E000000420462021002220270026FCF754FD4A
:1048F0006420FCF765FC204620210122FCF74CFDDA
:104900006420FCF75DFCAE208DF803004FF0904072
:10491000402100224025FCF73FFD40F2B474C2F272
:1049200000040DF10301204601224FF0FF33FEF792
:1049300091F84FF09040402100228DF80370FCF771
:104940002BFD0DF10301204601224FF0FF33FEF74E
:1049500081F802208DF803004FF0904040210022A2
:10496000FCF71AFD0DF10301204601224FF0FF3341
:10497000FEF770F8B0208DF803004FF09040402112
:104980000022FCF709FD0DF10301204601224FF042
:10499000FF33FEF75FF8C8208DF803004FF090401A
:1049A00040210022FCF7F8FC0DF103012046012212
:1049B0004FF0FF33FEF74EF84FF0904040210022B9
:1049C0008DF80360FCF7E8FC0DF10301204601229D
:1049D0004FF0FF33FEF73EF810208DF803004FF044
:1049E000904040210022FCF7D7FC0DF10301204646
:1049F00001224FF0FF33FEF72DF84FF09040402199
:104A000000228DF80350FCF7C7FC0DF1030120468E
:104A100001224FF0FF33FEF71DF881208DF80300CF
:104A20004FF0904040210022FCF7B6FC0DF103014D
:104A3000204601224FF0FF33FEF70CF8FF208DF8DF
:104A400003004FF0904040210022FCF7A5FC0DF13F
:104A50000301204601224FF0FF33FDF7FBFFA120A9
:104A60008DF803004FF0904040210022FCF794FCA9
:104A70000DF10301204601224FF0FF33FDF7EAFF5D
:104A8000A6208DF803004FF0904040210022FCF753
:104A900083FC0DF10301204601224FF0FF33FDF7A7
:104AA000D9FFA8208DF803004FF09040402100224C
:104AB000FCF772FC0DF10301204601224FF0FF3399
:104AC000FDF7C8FF3F208DF803004FF090404021D4
:104AD0000022FCF761FC0DF10301204601224FF09A
:104AE000FF33FDF7B7FFD3208DF803004FF0904060
:104AF00040210022FCF750FC0DF103012046012269
:104B00004FF0FF33FDF7A6FF4FF090404021002209
:104B10008DF80360FCF740FC0DF1030120460122F3
:104B20004FF0FF33FDF796FFD5208DF803004FF0CF
:104B3000904040210022FCF72FFC0DF1030120469C
:104B400001224FF0FF33FDF785FFF0208DF80300C1
:104B50004FF0904040210022FCF71EFC0DF10301B4
:104B6000204601224FF0FF33FDF774FFD9208DF866
:104B700003004FF0904040210022FCF70DFC0DF1A6
:104B80000301204601224FF0FF33FDF763FF22208F
:104B90008DF803004FF0904040210022FCF7FCFB11
:104BA0000DF10301204601224FF0FF33FDF752FFC4
:104BB000DA208DF803004FF0904040210022FCF7EE
:104BC000EBFB0DF10301204601224FF0FF33FDF70F
:104BD00041FF12208DF803004FF090404021002249
:104BE000FCF7DAFB0DF10301204601224FF0FF3301
:104BF000FDF730FFDB208DF803004FF0904040219F
:104C00000022FCF7C9FB0DF10301204601224FF001
:104C1000FF33FDF71FFF4FF09040402100228DF839
:104C20000350FCF7B9FB0DF10301204601224FF0C0
:104C3000FF33FDF70FFF8D208DF803004FF09040FC
:104C400040210022FCF7A8FB0DF1030120460122C0
:104C50004FF0FF33FDF7FEFE14208DF803004FF0F8
:104C6000904040210022FCF797FB0DF10301204604
:104C700001224FF0FF33FDF7EDFEAF208DF803006A
:104C80004FF0904040210022FCF786FB0DF103011C
:104C9000204601224FF0FF33FDF7DCFE40F210000A
:104CA000C2F200004FF48061FBF7EAFA00F002F86C
:104CB00001B0F0BD2DE9F04F81B040F2B47440F284
:104CC00010054FF00008C2F200040DF101090DF1CA
:104CD000020B4FF0100A0DF10307C2F20005002687
:104CE00046F0B0008DF801004FF0904040210022C6
:104CF000FCF752FB2046494601224FF0FF33FDF7F7
:104D0000A9FE4FF09040402100228DF80280FCF770
:104D100043FB2046594601224FF0FF33FDF79AFE30
:104D20004FF09040402100228DF803A0FCF734FBA7
:104D30002046394601224FF0FF33FDF78BFE4FF03E
:104D4000904040210122FCF727FB05EBC6112046CD
:104D50008022FDF752FF00BF2046FDF7B9FD012874
:104D6000FAD10136082EBBD101B0BDE8F08F80B575
:104D7000203A7A2884BF0131002040F210035FFA04
:104D800082FCC9B2C2F2000303EBC1114FEA4C032B
:104D900045F6662C53FA82F2C0F6000C0CEB420387
:104DA0005CF812209B8801EB000E0A50AEF804302C
:104DB00080BD052984BF01207047B2F5AA4F28BFE6
:104DC0004FF4AA420068602A00EBC11098BF60222D
:104DD000C0F89C2000207047B0B540F6FF71044633
:104DE000FCF76CFD054620464FF4FE01FCF735FD4F
:104DF000284318BF0120B0BD7047806A01684A6827
:104E000022F003024A60016E41F0100101660121A7
:104E100080F85D10FDF75BBD806AFDF772BFB0B52D
:104E200082B0846A0546FCF7BDFA296809688906DC
:104E300029D402462068416821F020014160416880
:104E400021F0020141602046642100F022F818B1EF
:104E5000206E40F020002066A06838B90020019044
:104E60002068C16801918068019001980020E08766
:104E7000012084F85D00206E28B1204602B0BDE814
:104E8000B040FDF724BD204602B0BDE8B040FDF7BC
:104E900037BF70B515460E464FF4C05132462B460B
:104EA000044600F017F868B9204631462A4600F05B
:104EB00085F838B920464FF4C06132462B4600F0E1
:104EC00009F828B1206E40F020002066032070BD54
:104ED000002070BD2DE9F04F83B04FF000091E4651
:104EE00090460D4682468DF80790FCF75BFA301A23
:104EF00000EB0807FCF756FA40F20001C2F200018D
:104F0000096823225143090DDAF800B07943029170
:104F1000DBF8081029424CD0064608F10104584637
:104F2000B5F5C06F05D19BF80C108DF807109DF8F2
:104F3000071074B1FCF736FA801BB8420FD2029901
:104F400002980029A0F101000290DAF8000008BFE1
:104F50000F4681682942E3D14FF0000929E0DAE9E0
:104F600000014268B1F5827F22F0E00242600BD17D
:104F7000DAF80810B1F5004F02D0B1F5806F03D117
:104F8000016821F040010160DAF82810B1F5005FF6
:104F900007D1016821F400510160016841F400511A
:104FA000016001208AF85D0000208AF85C004FF063
:104FB0000309484603B0BDE8F08F0000F0B581B0AA
:104FC00015460E460446FCF7EDF9281A8719FCF73A
:104FD000E9F940F20001C2F200010968C1F3CB31E6
:104FE0007943009121688A68120613D50546013677
:104FF0006EB1FCF7D7F9401BB8420ED20098009969
:105000000028A1F101010091216808BF07468868C6
:105010000006EDD4002001B0F0BDD4E900014268E3
:10502000B1F5827F22F0E00242600AD1A168B1F5B9
:10503000004F02D0B1F5806F03D1016821F040012B
:105040000160A16AB1F5005F07D1016821F4005148
:105050000160016841F400510160012084F85D00A5
:10506000002084F85C000320D5E77047FCF70EBEF3
:10507000B0B594B006AC201D1821FBF701F9002053
:105080000025FCF7ADFE4FF48071099140210A9193
:10509000042102200F9155210690CDE90D00CDE9A4
:1050A0001010CDE912002046FDF7D2F918B1EFF348
:1050B000108072B6FEE70F2001900320CDE90205B3
:1050C0004FF48060059001A804210495FDF748F88D
:1050D00018B1EFF3108072B6FEE714B0B0BD4EF613
:1050E0008850CEF20000016841F470010160704701
:1050F00040F66400C2F20000FEF7BCB840F61800AB
:10510000C2F20000FEF7B6B840F64810C2F2000046
:10511000FEF7B0B840F69410C2F20000FEF7AAB84D
:1051200040F6FF330268C4F2000343F2FF3C9842AA
:10513000C4F2010C0ADD604516DC40F60043C4F2FF
:10514000000398421CD042F6004315E0B0F1804FB6
:1051500016D040F20043C4F20003984210D040F64B
:105160000003C4F2000309E045F20003C4F20103A6
:10517000984205D043F20043C4F20103984203D1A0
:105180004B6822F070021A43604514DC40F2FF7352
:10519000C4F20003984223DD40F60003C4F200038A
:1051A000984231D040F60043C4F2000398422BD01D
:1051B00042F6004324E044F2FF33C4F20103984274
:1051C00016DD44F20043C4F2010398421CD045F2BC
:1051D0000003C4F20103984216D044F600030FE026
:1051E000B0F1804F10D040F20043C4F2000309E058
:1051F00043F20043C4F20103984205D044F2000395
:10520000C4F20103984203D1CB6822F440721A43DE
:1052100080B54B6922F0800E8A6843EA0E03D1F80C
:1052200000C00360C262A0F18042A2F596324FEA4C
:10523000B222092AC0F828C0BDE8804008D801235E
:1052400003FA02F240F2E5231A421CBF0969016326
:10525000012141610169C90708BF7047016921F057
:1052600001010161704740F67420C2F20000FEF7B0
:105270008FB940F60830C2F20000FEF789B9416EDE
:10528000F9B180B5016845F6B84C8A688968C0F6FE
:10529000000C490F45F6C04E1CF80130C0F6000E58
:1052A0001EF80110C2F34262DB00B3FBF1F11CF8FF
:1052B00002301EF80220DB00B3FBF2F2BDE88040B2
:1052C00001E001210122A0F86A10A0F868207047CF
:1052D000816A0A0708D50268D0F838C0536823F4F9
:1052E000004343EA0C035360CA0708D00268D0F8B1
:1052F0002CC0536823F4003343EA0C0353608A073D
:1053000008D50268D0F830C0536823F4803343EAEC
:105310000C0353604A0708D50268D0F834C05368BC
:1053200023F4802343EA0C035360CA0608D50268BD
:10533000D0F83CC0936823F4805343EA0C03936095
:105340008A0608D50268D0F840C0936823F4005359
:1053500043EA0C0393604A0615D5D0F800C0436CAD
:10536000DCF80420B3F5801F22F4801242EA030225
:10537000CCF8042007D1DCF80420836C22F4C002AE
:105380001A43CCF80420090658BF70470168C06C66
:105390004A6822F40022104348607047B0B582B0DA
:1053A00004460020C4F89000FBF7FCFF2168054686
:1053B0000A6812071BD56FF07E4C20464FF400118F
:1053C00000222B46CDF800C000F0C2F970B100BF3A
:1053D000206850E8000F216820F0800041E80002BA
:1053E000002AF5D103202021882230E021680868B6
:1053F000400723D56FF07E4C20464FF480010022F9
:105400002B46CDF800C000F0A3F9B8B1206850E8F1
:10541000000F216820F4907041E80002002AF5D1C5
:10542000206850E8020F216820F0010041E80202E4
:10543000002AF5D1032020218C2208E02020002121
:10544000C4F88800C4F88C00E16670220020A150E6
:10545000002184F8841002B0B0BD806A0021A0F859
:105460005E10FEF793B80000016851E8001F026863
:1054700021F4907142E80013002BF5D14FF6FE7C29
:10548000CEF6FF7C026852E8022F036802EA0C02A3
:1054900043E802210029F5D1C16E01290AD100BFDC
:1054A000016851E8001F026821F0100142E8001372
:1054B000002BF5D12021C0F88C100021C166416776
:1054C0007047000070B5054605F108041ECC006861
:1054D000194341EA0403EE69046846F6F311CCF679
:1054E000FF712140194331430160416848F2000CCB
:1054F00021F4405111434160AA69C4F2000C604597
:105500001CBF296A0A4381684FF2FF43C1F2FF13AF
:10551000194011438160C16AD5F824E021F00F01E0
:1055200041EA0E01C16244F6FF71C4F200018842F3
:105530004FF0100318DC44F20041C4F2000188422D
:1055400027D044F60001C4F2000188422FD044F66F
:105550000041C4F2000188423ED141F28801C4F208
:10556000020109688B092FE045F20001C4F2000135
:10557000884215D0604521D043F60001C4F20101F4
:10558000884229D141F28801C4F202010B686CA261
:105590001EE041F28801C4F2020109688B0813E0A1
:1055A00041F28801C4F2020109680B0A0CE041F2E1
:1055B0008801C4F2020109680B0905E041F2880183
:1055C000C4F2020109688B0A45F6A842C0F600023F
:1055D00003F0030152F82130604542F20040C0F26E
:1055E000F40011D0B6F5004F1DD1082B4FF001018A
:1055F00000F29E80DFE803F00553679C599C9C9C59
:105600006500FCF7BCFE52E0082B4FF0010100F2F0
:105610008F80DFE803F0058D208D178D8D8D1E00A6
:10562000FCF7ADFE10E0082B4FF0010100F2808086
:10563000DFE803F00538667E417E7E7E6400FCF77D
:105640009EFE3AE0FCF7C5FE00286ED0D5F824E0B7
:1056500001E04FF4004045F68E41C0F6000131F8FC
:105660001E106A68B0FBF1F002EB420188424FF075
:1056700001015DD3130398425AD8010E000210EBCA
:10568000520041F100010023FAF7C2FD4FF600522B
:10569000A0F54071C0F20F02914244D347E0FCF7FD
:1056A00083FE04E0FCF780FE07E0FCF792FEE0B327
:1056B000D5F824E007E0FCF78CFEB0B3D5F824E081
:1056C0001EE04FF4004045F68E41C0F6000131F86F
:1056D0001E106A68B0FBF1F0510801EB4000B0FB0E
:1056E000F2F04FF6EF72A0F1100191421FD84FF681
:1056F000F0710140C0F34200084414E04FF4004050
:1057000045F68E41C0F6000131F81E104FF6EF72DB
:10571000B0FBF1F0696800EB5100B0FBF1F0A0F1D3
:105720001001914203D82968C860002100E00121DE
:105730004FF00110A866002208466A67AA6770BD8C
:10574000010000000400000002000000080000004A
:105750002DE9F047804600681546C2690E461140A3
:10576000891BB1FA81F14909A94227D1DDF82090BE
:105770009A4609F101070324C7B1FBF713FEB9F1FB
:10578000000F1CD0A0EB0A00484518D8D8F800003C
:10579000016849070AD5402E08D0802E06D0C1697D
:1057A00009070FD4C169090510D400BFC169314090
:1057B000891BB1FA81F14909A942DDD000242046B4
:1057C000BDE8F08701240821082503E003242025F3
:1057D0004FF4006101624046FFF746FE0020C8F822
:1057E000905088F88400EAE740F6E010C2F200002A
:1057F000FDF7CEBEFEE700009FED081A9FED082AD8
:1058000020EE010A80EE020A9FED061A80EE010AE0
:10581000B3EE041A20EE010A704700BF3333534041
:1058200000FF7F47CDCCCC3DB0B500F033F810B3CE
:1058300090ED000A044600F01FF840F2B04594EDE8
:10584000011AC2F2000585ED000AB0EE410A00F02F
:1058500013F894ED021A85ED010AB0EE410AFFF744
:10586000CBFF94ED031A85ED020AB0EE410AFFF773
:10587000C3FF85ED030AB0BD9FED041A9FED042A16
:1058800020EE010A80EE020A704700BF3333534016
:1058900000FF7F4740F21041C2F2000108884A88A9
:1058A000801A8A88C98800EE100A40F29040B8EE4B
:1058B000C00AC2F20000511A80ED000A00EE101A70
:1058C00040F25041C2F200010A884B88B8EEC00A8B
:1058D000D21A80ED010A00EE102A8A88C988B8EE33
:1058E000C00A511A80ED020A00EE101AB8EEC00A82
:1058F00080ED030A70470000FCF7D5F9FFF7B8FB0D
:10590000FEF707FBFEF7C9FAFEF7ADF9FEF737FA27
:10591000FEF768FBFEF79FFFFEF7D7FEFEF7FBFEE4
:10592000FEF727FEFEF742FEFEF7F8FDFEF75BFEF0
:10593000FEF792FEFEF715FFFEF750FF00F032F87B
:10594000FFF7B8F920BFFBE7B0B540F69C33C2F2D1
:1059500000034AF6AA541C804FEA820C03EB82042F
:1059600040F60A5EA4F802E082B102334FF0000E66
:10597000002400BF0D5D1D550134042CFAD10EF139
:10598000010E0431964503F10403F1D140F69C3138
:105990000CF10402C2F200014FF0FF33BDE8B04049
:1059A000FEF7A4B880B540F6B000C2F20000FDF7E3
:1059B000FCFA08B1FAF786FD40F6FC00C2F20000DE
:1059C000FDF7F3FA08B1FAF77DFD40F64810C2F290
:1059D0000000FDF7EAFA08B1FAF774FD40F69410FA
:1059E000C2F20000FDF7E1FA08B1FAF76BFD40F6EC
:1059F0001800C2F20000FDF7D8FA08B1FAF762FD0C
:105A000040F66400C2F20000FDF7CFFA08B1FAF7E1
:105A100059FDFAF7B2FF40F2B860C2F20000FFF79A
:105A2000DBF908B1FAF74EFDBDE88040FEF753BF41
:105A300002E008C8121F08C1002AFAD17047704757
:105A4000002001E001C1121F002AFBD170470000B5
:105A5000000000000000010203040607080900001E
:105A60000000010203040000000000000000002FFD
:105A7000000000000700070000147F147F140024BA
:105A80002A7F2A12006264081323003649552250E7
:105A900000000503000000001C224100000041221C
:105AA0001C000014083E08140008083E0808000006
:105AB00000A06000000808080808000060600000FE
:105AC000002010080402003E5149453E0000427F7C
:105AD0004000004261514946002141454B310018C8
